:0400000080313028F3
:100008007E14803120007F08CC00911E2B2881317E
:100018003C2180312000CB004B08A8000D30280679
:10002800031D1A288031F12080312B282000280850
:10003800CB002708243E860087014B088100013049
:10004800CB004B08A707043027020318A70120009C
:100058004C08FF007E1009008031322820308400CF
:10006800003085002A3081316C217E1020008031DB
:10007800C4287430F6007608FA007308F70072088E
:10008800F600F20A0319F30A760884007708850057
:100098000008F8007808FB007B08031908002530E1
:1000A8007B0603195C287B08813172218031412845
:1000B800F9016E287A08860087010108F60076089B
:1000C800FB000230F6007608FA077B0881317221BE
:1000D800803141287308F7007208F600F20A031904
:1000E800F30A76088400770885000008FB00003AC8
:1000F80003198328633A03195E28692841280800F0
:1001080022008C018E01373021008C002A308E00AD
:100118001C3023008E0007308C0024008C018E01D7
:1001280025008C018E013C002108E0390438A1002B
:100138002008E0390538A0002408E0391538A40063
:100148003D001408E039193894002408E0391438BF
:10015800A4002008E0391A38A0002208E0391B382A
:10016800A2003C001D08E03910389D001E08E03947
:1001780011389E003D001508E03918389500080030
:1001880081312D2180318131842180318131822159
:10019800803181317F21803121008E1120008E1520
:1001A80003302000CE008A30CD005530890BDA2884
:1001B800CD0BDA28CE0BDA28003220008E1103305E
:1001C8002000CE008A30CD005530890BE928CD0BB0
:1001D800E928CE0BE9280032D2282000A7011830E0
:1001E800F2008130F30080313D2080312000CA01C7
:1001F80003304A02031808007730F2008130F30018
:100208004A08243E860087010108FC00FD017C089D
:10021800F4007D08F50080313D2080310130FC007C
:100228007C082000CA07FC286C346134203463340D
:100238006F346D346D3461346E3464346534203415
:1002480065347334743420343A3420340D340A3429
:10025800003481315C2181318031842081318131C8
:100268005321813181317B2181318131482108003D
:1002780023009D162000911E3E2923009D1C46291F
:100288009D139D17190808000A3023009F0090301D
:100298009D0024309E0033309B009C010800603094
:1002A800320099009B019D0101309F009E010800CA
:1002B8003200910192019301940195019601080081
:1002C800F0002000111E6529700823009A0008001C
:1002D800640080010131890B6D290034F100710837
:1002E8008131642108002034253463340034163009
:1002F8002100970008002100911608000B1708003C
:040308008B17080047
:020000040001F9
:08000E00ECFFF3FFFFFFFFFF11
:00000001FF
