:10000000803133280B1708007E14803120007F08D0
:10001000A200911E2E289631502680312000A1008A
:100020002108EC000D306C06031D1A28973120279B
:1000300080312E2820006C08A10021002308A03E5A
:10004000860087012000210881000130A1002108DD
:100050002100A307043023020318A3012000220873
:10006000FF007E100900803135282000E801E901F9
:10007000EA01EB01EC01A03084000030850025305E
:1000800096310C267E1020008A31722AF7308B318F
:100090006723803120002C082100C80020002B0895
:1000A0002100C70020002A082100C60020002908DE
:1000B0002100C50020006808C4006908C5006A085E
:1000C000C6006B08C7000130C800C737C60CC50C96
:1000D000C40CC80B6528003044072100D500063049
:1000E0002000453D2100D600FF302000463D210084
:1000F000D700FF302000473D2100D80055082000E0
:10010000C400210056082000C50021005708200027
:10011000C600210058082000C7000230C800C737B9
:10012000C60CC50CC40CC80B8F284708AA0046088B
:10013000A9004508A8004408A70021005508200090
:10014000C900210056082000CA00210057082000DD
:10015000CB00210058082000CC000230CD00CC3765
:10016000CB0CCA0CC90CCD0BAF284C08A6004B0811
:10017000A5004A08A4004908A3009731A0278031B0
:1001800020002308CE002408CF002508D000260830
:10019000D1000B30D200D137D00CCF0CCE0CD20B0B
:1001A000CB2851082100CC00200050082100CB00B2
:1001B00020004F082100CA0020004E082100C9007D
:1001C0004C082000A60021004B082000A5002100BB
:1001D0004A082000A400210049082000A3002100B3
:1001E00034082000A700210035082000A800890D50
:1001F000893B8909A900AA009731A02780312000F6
:1002000026082100D000200025082100CF00200072
:1002100024082100CE00200023082100CD004D0835
:100220002000C40021004E082000C50021004F0816
:100230002000C600210050082000C700210032081D
:100240002000A300210033082000A400890D893B71
:100250008909A500A600210058082000AA00210055
:1002600057082000A900210056082000A8002100FE
:1002700055082000A7009731A027803120002308CF
:10028000C8002408C9002508CA002608CB00013090
:10029000C835C90DCA0DCB0D890B48294808C407BC
:1002A0004908C53D4A08C63D4B08C73D47082100DF
:1002B000D000200046082100CF0020004508210082
:1002C000CE00200044082100CD0030082000C400EA
:1002D000210031082000C500C601C7011030C43517
:1002E000C50DC60DC70D890B6F2921004D082000D3
:1002F000C80021004E082000C90021004F0820003E
:10030000CA00210050082000CB000230CC00CB37BF
:10031000CA0CC90CC80CCC0B87294808C40749086B
:10032000C53D4A08C63D4B08C73D47082100D000DF
:10033000200046082100CF00200045082100CE0003
:10034000200044082100CD0055082000C4002100F1
:1003500056082000C500210057082000C6002100D3
:1003600058082000C7000230C800C737C60CC50CAB
:10037000C40CC80BB5294708AA004608A9004508BF
:10038000A8004408A700210055082000C90021004A
:1003900056082000CA00210057082000CB00210089
:1003A00058082000CC000230CD00CC37CB0CCA0C52
:1003B000C90CCD0BD5294C08A6004B08A5004A084E
:1003C000A4004908A3009731A0278031200023080A
:1003D000CE002408CF002508D0002608D1000D301B
:1003E000D200D137D00CCF0CCE0CD20BF129510852
:1003F0002100CC00200050082100CB0020004F0835
:100400002100CA0020004E082100C9002C0820004D
:10041000A30021002D082000A400890D893B890933
:10042000A500A600210058082000AA0021005708B6
:100430002000A900210056082000A800210055082E
:100440002000A7009731A027803120002308C40096
:100450002408C5002508C6002608C7000130C800CA
:10046000C737C60CC50CC40CC80B302A21002E0897
:100470002000A30021002F082000A400890D893B43
:100480008909A500A60021004C082000AA0021002F
:100490004B082000A90021004A082000A8002100E4
:1004A00049082000A7009731A027803120002308A9
:1004B000C9002408CA002508CB002608CC00033058
:1004C000CD00CC37CB0CCA0CC90CCD0B612A490826
:1004D000C4074A08C53D4B08C63D4C08C73D12300D
:1004E000CE00C737C60CC50CC40CCE0B712A47080A
:1004F0002100D800200046082100D7002000450830
:100500002100D600200044082100D5000030550706
:100510002000A30080302100563D2000A4000030C0
:100520002100573D2000A50000302100583D20004B
:10053000A60021002A082000A70021002B08200087
:10054000A800A901AA019731A02780312000230823
:10055000C4002408C5002508C6002608C7000F30BF
:10056000C800C737C60CC50CC40CC80BB12A470855
:100570002100D800200046082100D70020004508AF
:100580002100D600200044082100D5005808570457
:1005900056045504031DD42A00302000C100003049
:1005A000C2000030C3000800210045082000C4003C
:1005B000210046082000C500210047082000C60091
:1005C000210048082000C70021004D082000C80075
:1005D00021004E082000C90021004F082000CA0059
:1005E000210050082000CB000C30CC00CB37CA0CC7
:1005F000C90CC80CCC0BF62A4808C4074908C53DED
:100600004A08C63D4B08C73DC409C509C609C70904
:10061000C40A0319C50A0319C60A0319C70A003018
:100620004407A3000030453DA4001030463DA5001E
:100630000030473DA6000030AA000030A9000C3071
:10064000A8003530A7009731A02780312000260868
:100650002100D400200025082100D3002000240818
:100660002100D200200023082100D1008030540254
:1006700003186D2B58082000A60021005708200001
:10068000A500210056082000A400210055082000E4
:10069000A300210051352000A7002100520D2000A9
:1006A000A8002100530D2000A9002100540D2000B6
:1006B000AA00893101218031200026082100D400C0
:1006C000200025082100D300200024082100D200AA
:1006D000200023082100D1009F2B58082000A600ED
:1006E000210057082000A500210056082000A40082
:1006F000210055082000A300210054082000AA0072
:10070000210053082000A900210052082000A80061
:10071000210051082000A7008931012180312000EB
:1007200023352100D1002000240D2100D20020001B
:10073000250D2100D3002000260D2100D4005108F2
:100740002000C400210052082000C50021005308E9
:100750002000C600210054082000C7000330C7361F
:10076000C60CC50CC40C890BAF2B4708AA00460861
:10077000A9004508A8004408A7002100510820004E
:10078000C800210052082000C900210053082000A1
:10079000CA00210054082000CB000330CB36CA0C1D
:1007A000C90CC80C890BCE2B4B08A6004A08A50023
:1007B0004908A4004808A3009731A02780312000F1
:1007C0002308CC002408CD002508CE002608CF0041
:1007D0000D30CF36CE0CCD0CCC0C890BE92B4F084D
:1007E0002100CC0020004E082100CB0020004D0845
:1007F0002100CA0020004C082100C9003A0820004E
:10080000A30021003B082000A400890D893B890931
:10081000A500A60021004C082000AA0021004B08DA
:100820002000A90021004A082000A8002100490852
:100830002000A7009731A027803120002308C400A2
:100840002408C5002508C6002608C7000C30C800CB
:10085000C737C60CC50CC40CC80B282C4708210090
:10086000D800200046082100D700200045082100BC
:10087000D600200044082100D50051082000C40003
:10088000210052082000C500210053082000C600A6
:10089000210054082000C7000230C736C60CC50C22
:1008A000C40C890B4D2C4708A6004608A500450836
:1008B000A4004408A300210038082000A70021005C
:1008C00039082000A800890D893B8909A900AA00E0
:1008D0009731A027803120002308C8002408C900D0
:1008E0002508CA002608CB000D30CC00CB37CA0C37
:1008F000C90CC80CCC0B762C4B082100D000200072
:100900004A082100CF00200049082100CE00200025
:1009100048082100CD0051082000C40021005208E1
:100920002000C500210053082000C6002100540803
:100930002000C70021004D082000C80021004E08FB
:100940002000C90021004F082000CA0021005008E3
:100950002000CB00210055082000CC0021005608C3
:100960002000CD00210057082000CE0021005808AB
:100970002000CF00210036082000D00021003708D9
:100980002000D1000030D11BFF30D200D30050082E
:10099000CC075108CD3D5208CE3D5308CF3D4C0801
:1009A000C8074D08C93D4E08CA3D4F08CB3D04302D
:1009B000D400CB37CA0CC90CC80CD40BD92C4808AE
:1009C000C4074908C53D4A08C63D4B08C73D47080E
:1009D0002100D400200046082100D3002000450853
:1009E0002100D200200044082100D1000030200066
:1009F000B100C830B2004230B300210054082000DA
:100A0000AE00210053082000AD0021005208200054
:100A1000AC00210051082000AB00973147278031FE
:100A200020002B08B4002C08B5002D08B600873133
:100A30001A2720003108C1003208C2003308C30061
:100A40000800FA308B316723853120002C08210003
:100A5000D70020002B082100D60020002A08210002
:100A6000D500200029082100D40004302000C40053
:100A70002100D737D60CD50CD40C2000C40B382D50
:100A8000210024082000C400210025082000C50002
:100A9000C601C7010130C435C50DC60DC70D890B90
:100AA0004B2DC409C509C609C709C40A0319C50ADB
:100AB0000319C60A0319C70A210054082000C800F8
:100AC000210055082000C900210056082000CA0056
:100AD000210057082000CB000330CC00CB37CA0CD4
:100AE000C90CC80CCC0B6E2D4808C4074908C53D7D
:100AF0004A08C63D4B08C73D4708A6004608A50062
:100B00004508A4004408A300210026082000A700EF
:100B1000210027082000A800890D893B8909A90028
:100B2000AA009731A027853120002308CD00240892
:100B3000CE002508CF002608D0000B30D100D037DA
:100B4000CF0CCE0CCD0CD10B9F2D50082100C8002E
:100B500020004F082100C70020004E082100C600D9
:100B600020004D082100C50024082000C4002100F9
:100B700025082000C500C601C701C409C509C6096A
:100B8000C709C40A0319C50A0319C60A0319C70A03
:100B9000210054082000C800210055082000C90089
:100BA000210056082000CA00210057082000CB0071
:100BB0000430CC00CB37CA0CC90CC80CCC0BDA2DD6
:100BC0004808C4074908C53D4A08C63D4B08C73D0B
:100BD0004708AA004608A9004508A8004408A7003D
:100BE000210024082000CD00210025082000CE008F
:100BF000CF01D001CD09CE09CF09D009CD0A031903
:100C0000CE0A0319CF0A0319D00A21005408200084
:100C1000D100210055082000D200210056082000F4
:100C2000D300210057082000D4000430D500D43769
:100C3000D30CD20CD10CD50B172E5108CD0752086E
:100C4000CE3D5308CF3D5408D03D5008A6004F0874
:100C5000A5004E08A4004D08A3009731A0278531B8
:100C600020002308D6002408D7002508D80026082D
:100C7000D9000C30DA00D937D80CD70CD60CDA0BE7
:100C80003B2E59082100D000200058082100CF0039
:100C9000200057082100CE00200056082100CD007A
:100CA00050082000A60021004F082000A5002100C8
:100CB0004E082000A40021004D082000A3002100C0
:100CC00028082000A700210029082000A800890D7D
:100CD000893B8909A900AA009731A0278531200006
:100CE0002308C4002408C5002508C6002608C7003C
:100CF0000E30C800C737C60CC50CC40CC80B7A2E02
:100D000047082100CC00200046082100CB0020002D
:100D100045082100CA00200044082100C9004508F8
:100D200049072000C400210046084A3D2000C500B4
:100D3000210047084B3D2000C600210048084C3DDB
:100D40002000C7004708EB004608EA004508E90014
:100D50004408E8008030C4000030C5000030C60000
:100D60000030C7000030AA000030A9000030A80001
:100D70000530A7006B08A6006A08A5006908A40052
:100D80006808A3009731A027853120002308C407F5
:100D90002408C53D2508C63D2608C73D0830C800C3
:100DA000C737C60CC50CC40CC80BD02E4708B20000
:100DB0004608B1004508B0004408AF008731C3279A
:100DC000853120002F082100D100200030082100AB
:100DD000D200200031082100D30000302000B100F3
:100DE000C830B2004230B300210051082000B400E6
:100DF000210052082000B500210053082000B60051
:100E000087311A27200031082100D1002000320844
:100E10002100D200200033082100D3005108200017
:100E2000C100210052082000C20021005308200008
:100E3000C300080020003408B7003508B8003608A1
:100E4000B9000310380D390DBA003A08BF003F0849
:100E5000031D312F0030B1000030B2000030B3006C
:100E600008003108B7003208B8003308B900031091
:100E7000380D390DBA003A08C0004008031D472F4D
:100E80000030B1000030B2000030B3000800003084
:100E9000BC000030BD000030BE0089304007B70004
:100EA0003708BF023408B7003508B8003608B90063
:100EB0001030B936B80CB70C890B592F3708BA0067
:100EC0003A08C0003108B7003208B8003308B9004A
:100ED0001030B936B80CB70C890B692F3708BA0037
:100EE0003A08C0068030B7003708C005B517FF3094
:100EF000B405FF30B5050030B605B217FF30B105B7
:100F0000FF30B2050030B3051830B7003708BB001A
:100F10000130BC35BD0DBE0D890B892F330836025B
:100F2000031D982F32083502031D982F3108340213
:100F3000031CA12F3108B4023208B53B3308B63B7D
:100F40003C140130B435B50DB60D890BA22F01301C
:100F5000BB02031D882F3C08A3003D08A4003E08E7
:100F6000A5003F08B7003708A6004008B8003808B9
:100F7000A7008A310D2220002308B1002408B20006
:100F80002508B30008002000B6018E30B3003308F6
:100F9000B500B21FD82FAF09B009B109B209AF0A25
:100FA0000319B00A0319B10A0319B20AB601B60A45
:100FB000FF3032050319E82F0130B236B10CB00C06
:100FC000AF0C890BDD2F0130B3003308B507D82FE4
:100FD0002F08A3003008A4003108A5003508B3008D
:100FE0003308A6003608B4003408A7008A310D2261
:100FF00020002308AF002408B0002508B100080035
:1010000016302100970008009531FC2588314730C3
:101010002000A3000030A400963112268831013050
:101020002000A3000030A4009631FB268831200068
:101030002408AC002308AB000830AB35AC0D890B9D
:101040001D280030A300A4009631FB268831200023
:101050002308AB042408AC0496312126883196314C
:10106000012620002C08AA002B08A9000800220055
:101070008C018E01373021008C002A308E001C300C
:1010800023008E0007308C0024008C018E01250087
:101090008C018E013C002108E0390438A1002008B1
:1010A000E0390538A0002408E0391538A4003D00D7
:1010B0001408E039193894002408E0391438A400E1
:1010C0002008E0391A38A0002208E0391B38A200B5
:1010D0003C001D08E03910389D001E08E039113829
:1010E0009E003D001508E0391838950008002000E2
:1010F000AB009531FC258831EC302000A300003096
:10110000A40096311226883196312126883120009C
:101110002B08A900AA012908A3002A08A4009631D7
:101120001226883196312126883196310126883160
:101130009531FC258831ED302000A3000030A4005B
:1011400096311226883196312126883100302000D0
:10115000A300A4009631FB26883120002308A900B3
:101160002908AC00963121268831963101262000CD
:101170002C0808007430F6007608FA007308F700AF
:101180007208F600F20A0319F30A76088400770859
:1011900085000008F8007808FB007B0803190800A8
:1011A00025307B060319D9287B089531F72588312E
:1011B000BE28F901EB287A08860087010108F600AD
:1011C0007608FB000230F6007608FA077B089531B6
:1011D000F7258831BE287308F7007208F600F20A76
:1011E0000319F30A76088400770885000008FB00DD
:1011F000003A03190029633A0319DB28E628BE28C0
:10120000080000302000AF000030AE000030AD001C
:101210000030AC00260825042404230403194B29BC
:10122000B001B00AA61B20290130A335A40DA50DDD
:10123000A60D890B15290130AB002B08B007122928
:101240000130AC35AD0DAE0DAF0D890B212926084F
:101250002A02031D352925082902031D35292408E2
:101260002802031D352923082702031C40292308CF
:10127000A7022408A83B2508A93B2608AA3B2C1452
:101280000130A636A50CA40CA30C890B4129013012
:10129000B002031D20292F08A6002E08A5002D0846
:1012A000A4002C08A30008002000AD009531FC2507
:1012B0008931EC302000A3000030A40096311226C2
:1012C000893196312126893120002D08AB00AC01EF
:1012D0002B08A3002C08A4009631122689319631E0
:1012E000212689319631012689319531FC258931B4
:1012F000ED302000A3000030A40096311226893181
:1013000096312126893101302000A3000030A4004D
:101310009631FB26893120002408AF002308AE0057
:101320000830AE35AF0D890B91290030A300A40021
:101330009631FB26893120002308AE042408AF042F
:101340009631212689319631012620002F08AA00E6
:101350002E08A90008002000D2000130963187260F
:101360008931C6292330963187268931D229203008
:10137000963187268931D2292130963187268931C5
:10138000D2292030963187268931D229200052086F
:10139000003A0319B229013A0319B729033A03198C
:1013A000BC29C12982302000D100DD30890BD6292B
:1013B000D10BD629003288310420893120002A0837
:1013C000D4002908D3005408AC005308AB00963170
:1013D0005C26893120002B08B4002C08B5002D08AC
:1013E000B6009A30B1009930B2003F30B300873177
:1013F0001A27893120003108C1003208C2003308A1
:10140000C3008A31E02220004208D4004108D30002
:101410005408D0005308CF00080020002608031904
:10142000162A250824042304031D272A0030A300BC
:101430000030A4000030A50008000130A8002808F2
:10144000A6070130A536A40CA30C890B222AFE3076
:1014500025050319402A1D2A0130A8002808A607DF
:101460000130A307003003180130A407003003182F
:101470000130A5070130A536A40CA30C890B3B2A2B
:10148000FF30250503194D2A2C2A0130A602013010
:10149000A335A40DA50D890B482AA41B532A02309D
:1014A00026020318452A26185B2AFF30A3057F3041
:1014B000A405FF30A5050310A60C2608A800A90165
:1014C000AA011030A835A90DAA0D890B622A280897
:1014D000A3042908A4042A08A5042708031908005E
:1014E000A51708009631D8268A312000A501A50A43
:1014F000F230973171278A3124302000DB005B08FD
:10150000A500F430973171278A318B31F2238A316B
:101510009531F2258A31803102208A319531F425C6
:101520008A3121008E1120008E1503302000DC004E
:101530008A30DB005530890B9B2ADB0B9B2ADC0BA6
:101540009B2A0032963171268A3120008E1101309B
:101550008931AB218A3120005008E7004F08E600AE
:1015600003302000DC008A30DB005530890BB62ABE
:10157000DB0BB62ADC0BB62A0032853121258A31F5
:1015800020004108DD004208DE004308DF008C3106
:10159000F0248A3120004108E0004208E1004308BD
:1015A000E200803146208A3120004108E3004208F1
:1015B000E4004308E500AA30963106268A31932AD2
:1015C00020004108C5004208C6004308C7000310B8
:1015D000460D470DC8004808CE004E08031DF92AE5
:1015E0000030C4000030C3000030C2000030C10031
:1015F00008004108C5004208C6004308C70017306C
:10160000C736C60CC50C890B002B4508C800480816
:10161000C900C217FF30C105FF30C2050030C30545
:101620004108CA004208CB004308CC00CD018E30EF
:10163000CE02CE1F372B4E08803A8F3E0318292B3F
:101640000030C4000030C3000030C2000030C100D0
:1016500008000130CD36CC0CCB0CCA0C890B2A2BE0
:101660000130C5004508CE070319502B292B18302F
:101670004E02031C4D2B0030C4000030C30000306C
:10168000C2000030C10008000130CA35CB0DCC0DBE
:10169000CD0D890B452B0130CE024E08031D442B86
:1016A000490803195E2BCA09CB09CC09CD09CA0A1E
:1016B0000319CB0A0319CC0A0319CD0A4D08C4003B
:1016C0004C08C3004B08C2004A08C10008002000B3
:1016D000B1009531FC258B31EC302000A3000030A7
:1016E000A400963112268B31963121268B312000B1
:1016F0003108AD00AE012D08A3002E08A4009631DC
:1017000012268B31963121268B31963101268B3171
:101710009531FC258B31ED302000A3000030A40072
:10172000963112268B31963121268B3101302000E3
:10173000A3000030A4009631FB268B312000230843
:10174000B2002408B300B401B5010830B235B30DBE
:10175000B40DB50D890BA62B963121268B310130A6
:101760002000A3000030A4009631FB268B3120001E
:101770002308AD002408AE00AF01B0012D08B2046B
:101780002E08B3042F08B4043008B5040830B2356D
:10179000B30DB40DB50D890BC72B963121268B31B6
:1017A00000302000A300A4009631FB268B312000DE
:1017B0002308AD002408AE00AF01B0012D08B2042B
:1017C0002E08B3042F08B4043008B504963101265E
:1017D00020003508AC003408AB003308AA003208FA
:1017E000A900080088309631BD268B3120003108D1
:1017F0002100A500200030082100A4008A30963185
:1018000045268B3120003A082100A7002000390826
:101810002100A6008C30963145268B3120003A08F5
:101820002100A900200039082100A8008E3096313F
:10183000BD268B31200031082100AB00200030088C
:101840002100AA009030963145268B3120003A08BD
:101850002100AD00200039082100AC009230963103
:1018600045268B3120003A082100AF0020003908BE
:101870002100AE009430963145268B3120003A0885
:101880002100B100200039082100B00096309631C7
:1018900045268B3120003A082100B300200039088A
:1018A0002100B2009830963145268B3120003A084D
:1018B0002100B500200039082100B4009A3096318B
:1018C00045268B3120003A082100B7002000390856
:1018D0002100B6009C30963145268B3120003A0815
:1018E0002100B900200039082100B8009E3096314F
:1018F00045268B3120003A082100BB002000390822
:101900002100BA00A130883177208B312000BD0042
:101910003D082100BC00E130963145268B31200086
:101920003A082100BE00200039082100BD00E33044
:10193000883177208B312000BD003D082100BF0099
:10194000E530883177208B310F392000BD00BE0192
:10195000E430883177208B312000BF00C001BF0EFA
:10196000C00EF030C0053F080F39C004F030BF058D
:101970003D083F042100C00020003E084004210033
:10198000C100E530883177208B312000BD00043064
:10199000BD36890BC82C3D08BE00BF01E63088313A
:1019A00077208B312000C000C101C00EC10EF03085
:1019B000C10540080F39C104F030C0053E0840049D
:1019C0002100C20020003F0841042100C300E7308D
:1019D000883177202000BD003D082100C4000800A8
:1019E000FD30893154218C31200029082100C500A7
:1019F00020002A082100C600C701C80100302000CD
:101A000068072100E000D4302000693D2100E1009A
:101A1000FE3020006A3D2100E200FF3020006B3DD7
:101A20002100E30063082000AA00210062082000D2
:101A3000A900210061082000A80021006008200002
:101A4000A700210044082000A3008039031DFF30B7
:101A5000A400A500A6009731A0278C312000230800
:101A6000C4002408C5002508C6002608C7000A309F
:101A7000C800C737C60CC50CC40CC80B392D4708A5
:101A80002100DF00200046082100DE00200045087C
:101A90002100DD00200044082100DC006308200054
:101AA000AA00210062082000A9002100610820008E
:101AB000A800210060082000A70021003F082000A6
:101AC000C400C501C601C7014708A6004608A50015
:101AD0004508A4004408A3009731A0278C312000BA
:101AE0002308C8002408C9002508CA002608CB001E
:101AF0000B30CC00CB37CA0CC90CC80CCC0B7A2DE0
:101B0000003048072100C90080302000493D2100F5
:101B1000CA00003020004A3D2100CB0000302000E8
:101B20004B3D2100CC005F082000AA0021005E0888
:101B30002000A90021005D082000A80021005C0809
:101B40002000A70021004C082000A60021004B081F
:101B50002000A50021004A082000A4002100490817
:101B60002000A3009731A0278C3120002308C40057
:101B70002408C5002508C6002608C7000A30C8008A
:101B8000C737C60CC50CC40CC80BC02D00304407A9
:101B90002100CD0000302000453D2100CE00203046
:101BA0002000463D2100CF0000302000473D2100AD
:101BB000D00000302000C4004030C5000030C60016
:101BC0000030C700210063082000AA00210062083D
:101BD0002000A900210061082000A8002100600861
:101BE0002000A700210042082000A3002100430894
:101BF0002000A400890D893B8909A500A600973122
:101C0000A0278C3120002309C8002409C900250918
:101C1000CA002609CB00C80A0319C90A0319CA0A4F
:101C20000319CB0A210040082000CC002100410804
:101C30002000CD00CE01CF011430CC35CD0DCE0D1E
:101C4000CF0D890B1D2ECC09CD09CE09CF09CC0AA9
:101C50000319CD0A0319CE0A0319CF0A210045083A
:101C60002000D000210046082000D10021004708B4
:101C70002000D200210048082000D3000E30D035CB
:101C8000D10DD20DD30D890B3F2E5008CC07510832
:101C9000CD3D5208CE3D5308CF3D4C08C8074D08F6
:101CA000C93D4E08CA3D4F08CB3D4808C407490806
:101CB000C53D4A08C63D4B08C73D0F30D400C73765
:101CC000C60CC50CC40CD40B5F2E47082100D400F1
:101CD000200046082100D300200045082100D20042
:101CE000200044082100D10000302000C400203032
:101CF000C5000030C6000030C70021003D082000AC
:101D0000A70021003E082000A800890D893B890911
:101D1000A900AA00210050082000A60021004F08B9
:101D20002000A50021004E082000A40021004D083D
:101D30002000A3009731A0278C3120002308C4077E
:101D40002408C53D2508C63D2608C73D0E30C800FD
:101D5000C737C60CC50CC40CC80BA82E47082100F9
:101D6000D800200046082100D700200045082100A7
:101D7000D600200044082100D50054082000A60009
:101D8000210053082000A500210052082000A400D3
:101D9000210051082000A300210058082000AA00BB
:101DA000210057082000A900210056082000A800A3
:101DB000210055082000A7009731A0278C31200072
:101DC00026082100E300200025082100E200200071
:101DD00024082100E100200023082100E000600821
:101DE0002000C400210061082000C5002100620815
:101DF0002000C600210063082000C7000F30C80083
:101E0000C737C60CC50CC40CC80B002F4708AA0066
:101E10004608A9004508A8004408A700210060085A
:101E20002000C900210061082000CA0021006208CA
:101E30002000CB00210063082000CC000F30CD0033
:101E4000CC37CB0CCA0CC90CCD0B202F4C08A600EC
:101E50004B08A5004A08A4004908A3009731A02711
:101E60008C3120002308CE002408CF002508D000A4
:101E70002608D1000730D200D137D00CCF0CCE0CC1
:101E8000D20B3C2F51082100DF0020005008210018
:101E9000DE0020004F082100DD0020004E08210058
:101EA000DC0060082000C400210061082000C5009B
:101EB000210062082000C600210063082000C7003E
:101EC00021005F082000A60021005E082000A50078
:101ED00021005D082000A40021005C082000A30070
:101EE00021003C082000C800C901CA01CB014B08F1
:101EF000AA004A08A9004908A8004808A700973185
:101F0000A0278C3120002308CC002408CD00250810
:101F1000CE002608CF000430D000CF37CE0CCD0C39
:101F2000CC0CD00B8D2FCC09CD09CE09CF09CC0A12
:101F30000319CD0A0319CE0A0319CF0A4C08C407A6
:101F40004D08C53D4E08C63D4F08C73D4708210016
:101F5000E300200046082100E2002000450821009F
:101F6000E100200044082100E00060082000C400D7
:101F7000210061082000C500210062082000C60081
:101F8000210063082000C7000C30C800C737C60C0A
:101F9000C50CC40CC80BC62F4708B2004608B100D8
:101FA0004508B0004408AF008731C3278C312000BA
:101FB0002F082100D900200030082100DA0020007D
:101FC00031082100DB0000302000B1008030B20079
:101FD0004430B300210059082000B40021005A0801
:101FE0002000B50021005B082000B60087311A27C9
:101FF00020003108C1003208C2003308C3000800C5
:102BE4008B170800210091160800F1007108963136
:102BF400192608009631212624001614080096315F
:102C040021262400161508002000A3002308240010
:102C140099000800640080010131890B0D2E0034F5
:102C24009631212620002308240091000800F0009A
:102C34002000111E1A2E700823009A000800240098
:102C44001419212E16081F3903190800212E3200E9
:102C5400910192019301940195019601080060305D
:102C6400320099009B019D0101309F009E010800E4
:102C74000A3023009F0090309D0024309E003330A2
:102C84009B009C0108002000BC003C089631BD2636
:102C940020003108BA003008B900080023009D164E
:102CA4002000911E522E23009D1C5A2E9D139D1709
:102CB4001908080020002B08A3002C08A400A50173
:102CC4008E30AE002E08A600A7018A310D22200006
:102CD4002308AB002408AC002508AD000800F4303C
:102CE4008831772096312000AD002D08AE002E08E3
:102CF400FC39013EAD002D08AE002E08AD002D08B4
:102D0400A500F4309731712708002000A700953101
:102D1400FC25963146302000A3000030A4009631F3
:102D24001226963120002708A500A6012508A30035
:102D34002608A40096311226963196310126080001
:102D44002000A60021000E118E142000261DB02E96
:102D5400250824009C0021000E14B72E200023080F
:102D6400250424009C0021000E10200026082404C1
:102D740024009D0008002000B60036088931542143
:102D840020002A08B8002908B7003708B300B201A8
:102D94003808B5003708B4003508B400B501320866
:102DA4003404B00033083504B100080096312926F4
:102DB40096318831372096319631312696318831D3
:102DC4000020963196313A26963100302000B40026
:102DD4000130B3008630B200A030B1009731D02763
:102DE40096312000A301A401A50120309631A2262A
:102DF4000800963121269631240096159631212615
:102E04009631240011082000A500A6012508A7007A
:102E14002608A80096312126963120002308240490
:102E2400031D172F24009616192F24009612161628
:102E340020002808A4002708A30008002100A301FB
:102E44000030F2009830F3008831BA209731200026
:102E5400A00103302002031808001530F200983056
:102E6400F3002008A03E860087010108FC00FD0154
:102E74007C08F4007D08F5008831BA2097310130D0
:102E8400FC007C082000A0072B2F8E302000AF0010
:102E94002F08B000FF302E0503195C2F0130AE3629
:102EA400AD0CAC0CAB0C890B512F0130AF002F08CB
:102EB400B0074C2F2B08A3002C08A4002D08A50054
:102EC4003008AF002F08A600A7018A310D22200088
:102ED4002308AB002408AC002508AD00080020003E
:102EE400A8009531FC259731EC302000A300003078
:102EF400A40096311226973196312126973120006D
:102F04002808A600A7012608A3002708A4009631D4
:102F14001226973196312126973120002508A600E4
:102F2400A7012608A3002708A4009631122697318A
:102F34009631212697319631012608000030200071
:102F4400AE000030AD000030AC000030AB00231CFC
:102F5400B32F2708AB072808AC3D2908AD3D2A0844
:102F6400AE3D0130A735A80DA90DAA0D890BB42FCC
:102F74000130A636A50CA40CA30C890BBB2F260884
:102F8400250424042304031DA92F2E08A6002D08BC
:102F9400A5002C08A4002B08A30008002830240056
:102FA4009500960120003108B5003208B6003308B8
:102FB400B7003408B8000230B535B60DB70DB80DFA
:102FC400890BDE2F3808A6003708A5003608A400B0
:102FD4003508A3000030AA001E30A9008430A800E0
:102FE4008030A7008931012120002308FF3E2400FE
:102FF4009200940121008C160C1608006C34613484
:10300400203463346F346D346D3461346E3464341D
:103014006534203465347334743420343A342034C1
:0E3024000D340A340034203425346334003473
:020000040001F9
:08000E00ECFFF3FFFFFFFFFF11
:00000001FF
