:08000000803102288731F62F40
:100D44001630210097000800640080010131890BEE
:100D5400A72E0034F0002000111EAD2E70082300D1
:100D64009A000800320091019201930194019501C7
:100D7400960108006030320099009B019D0101300A
:100D84009F009E0108000A3023009F0090309D00C0
:100D940024309E0033309B009C0108008631B42629
:100DA40086318731602786318631BC26863186318B
:100DB400A22686318631C5260800F30021000E11D3
:100DC4008E14731DEB2E720824009C0021000E1457
:100DD400F12E7008720424009C0021000E10730888
:100DE400710424009D000800283024009500960119
:100DF40020004508C9004608CA004708CB00480837
:100E0400CC000230C935CA0DCB0DCC0D890B042F93
:100E14004C08F3004B08F2004A08F1004908F000BE
:100E24000030F7001E30F6008430F5008030F40006
:100E34008731A4277008FF3E24009200940121000A
:100E44008C160C1608008631D0268731003020001D
:100E5400C8000130C7008630C600A030C500863106
:100E6400F6268731F001F101F20120308631DF26C8
:100E7400873121008E1120008E1503302000CE0012
:100E84008A30CD005530890B452FCD0B452FCE0B25
:100E9400452F003220008E1103302000CE008A300E
:100EA400CD005530890B542FCD0B542FCE0B542F1E
:100EB400003270308631AC2687313D2F22008C0100
:100EC4008E01373021008C002A308E001C30230024
:100ED4008E0007308C0024008C018E0125008C01CB
:100EE4008E013C002108E0390438A1002008E039D3
:100EF4000538A0002408E0391538A4003D00140882
:100F0400E039193894002408E0391438A400200882
:100F1400E0391A38A0002208E0391B38A2003C004E
:100F24001D08E03910389D001E08E03911389E0074
:100F34003D001508E039183895002508E0391B38BC
:100F4400A50008000030FC000030FB000030FA006F
:100F54000030F90073087204710470040319ED2F52
:100F6400FD01FD0AF31BC22F0130F035F10DF20D26
:100F7400F30D890BB72F0130F8007808FD07B42F63
:100F84000130F935FA0DFB0DFC0D890BC32F7308E5
:100F94007702031DD72F72087602031DD72F71081D
:100FA4007502031DD72F70087402031CE22F70080A
:100FB400F4027108F53B7208F63B7308F73B7914A9
:100FC4000130F336F20CF10CF00C890BE32F0130F5
:100FD400FD02031DC22F7C08F3007B08F2007A088F
:100FE400F1007908F000080020308400003085000A
:0C0FF40025308631A62620008731252FED
:020000040001F9
:08000E00ECFFF3FFFFFFFFFF11
:00000001FF
