:08000000803102288731F62F40
:10000C000030FC000030FB000030FA000030F9003A
:10001C00730872047104700403194F28FD01FD0A62
:10002C00F31B24280130F035F10DF20DF30D890B83
:10003C0019280130F8007808FD0716280130F93529
:10004C00FA0DFB0DFC0D890B252873087702031D97
:10005C00392872087602031D392871087502031DB0
:10006C00392870087402031C44287008F4027108C3
:10007C00F53B7208F63B7308F73B79140130F33605
:10008C00F20CF10CF00C890B45280130FD02031D1C
:10009C0024287C08F3007B08F2007A08F100790828
:1000AC00F0000800FA308D314C25803179082000A1
:1000BC00DC007808DB007708DA007608D900043019
:1000CC00B300DC37DB0CDA0CD90CB30B672821003E
:1000DC0039082000B30021003A082000B400B50113
:1000EC00B6010130B335B40DB50DB60D890B7828BA
:1000FC00B309B409B509B609B30A0319B40A03194B
:10010C00B50A0319B60A5908B7005A08B8005B08B3
:10011C00B9005C08BA000330BB00BA37B90CB80C94
:10012C00B70CBB0B93283708B3073808B43D390814
:10013C00B53D3A08B63D3608F3003508F2003408F0
:10014C00F1003308F00021003B08F4003C08F500F6
:10015C00890D893B8909F600F7008A31AF2280317D
:10016C0070082000BC007108BD007208BE00730846
:10017C00BF000B30C000BF37BE0CBD0CBC0CC00B9D
:10018C00C1283F08CD003E08CC003D08CB003C0800
:10019C00CA00210039082000B30021003A082000D1
:1001AC00B400B501B601B309B409B509B609B30A6F
:1001BC000319B40A0319B50A0319B60A5908B7008A
:1001CC005A08B8005B08B9005C08BA000430BB00E0
:1001DC00BA37B90CB80CB70CBB0BEE283708B30701
:1001EC003808B43D3908B53D3A08B63D3608F70035
:1001FC003508F6003408F5003308F40021003908FE
:10020C002000BC0021003A082000BD00BE01BF0147
:10021C00BC09BD09BE09BF09BC0A0319BD0A0319F3
:10022C00BE0A0319BF0A5908C0005A08C1005B086E
:10023C00C2005C08C3000430C400C337C20CC10C3C
:10024C00C00CC40B23294008BC074108BD3D420823
:10025C00BE3D4308BF3D3F08F3003E08F2003D0899
:10026C00F1003C08F0008A31AF2280317008200088
:10027C00C5007108C6007208C7007308C8000C30AE
:10028C00C900C837C70CC60CC50CC90B4729480890
:10029C00D5004708D4004608D3004508D2005508BD
:1002AC00F3005408F2005308F1005208F00021004A
:1002BC003D08F4003E08F500890D893B8909F600DC
:1002CC00F7008A31AF22803170082000B30071082A
:1002DC00B4007208B5007308B6000E30B700B6371C
:1002EC00B50CB40CB30CB70B75293608D100350816
:1002FC00D0003408CF003308CE004A084E07B300B4
:10030C004B084F3DB4004C08503DB5004D08513DD5
:10031C00B60036082100B300200035082100B200D9
:10032C00200034082100B100200033082100B00067
:10033C0080302000B3000030B4000030B500003035
:10034C00B6000030F7000030F6000030F500053044
:10035C00F40021003308F3003208F2003108F100F8
:10036C003008F0008A31AF22803170082000B307CA
:10037C007108B43D7208B53D7308B63D0830B7003E
:10038C00B637B50CB40CB30CB70BC6293608A300A2
:10039C003508A2003408A1003308A0008B31492392
:1003AC00803120002008D6002108D7002208D80070
:1003BC000030A000C830A1004230A2005608A300B3
:1003CC005708A4005808A5008E3159262000200893
:1003DC00D6002108D7002208D8005608B0005708CC
:1003EC00B1005808B2000800FD308B31CA238131AE
:1003FC0076082000C4007708C500C601C70100308C
:10040C00210030072000DF00D4302100313D2000D6
:10041C00E000FE302100323D2000E100FF302100E1
:10042C00333D2000E2006208F7006108F600600826
:10043C00F5005F08F40021005908F0008039031D15
:10044C00FF30F100F200F3008A31AF2281317008E5
:10045C002000B3007108B4007208B5007308B60030
:10046C000A30B700B637B50CB40CB30CB70B382A3E
:10047C003608DE003508DD003408DC003308DB000C
:10048C006208F7006108F6006008F5005F08F400E8
:10049C00210054082000B300B401B501B6013608A0
:1004AC00F3003508F2003408F1003308F0008A310B
:1004BC00AF22813170082000B7007108B8007208B3
:1004CC00B9007308BA000B30BB00BA37B90CB80CC2
:1004DC00B70CBB0B6B2A00303707C8008030383D97
:1004EC00C9000030393DCA0000303A3DCB005E08EF
:1004FC00F7005D08F6005C08F5005B08F4004B089B
:10050C00F3004A08F2004908F1004808F0008A316B
:10051C00AF22813170082000B3007108B40072085A
:10052C00B5007308B6000A30B700B637B50CB40C7A
:10053C00B30CB70B9B2A00303307CC000030343D92
:10054C00CD002030353DCE000030363DCF000030A0
:10055C00B3004030B4000030B5000030B600620883
:10056C00F7006108F6006008F5005F08F400210050
:10057C005708F0005808F100890D893B8909F200F1
:10058C00F3008A31AF22813170092000B700710964
:10059C00B8007209B9007309BA00B70A0319B80A8E
:1005AC000319B90A0319BA0A210055082000BB0027
:1005BC00210056082000BC00BD01BE011430BB3523
:1005CC00BC0DBD0DBE0D890BE52ABB09BC09BD09CF
:1005DC00BE09BB0A0319BC0A0319BD0A0319BE0ADA
:1005EC004408BF004508C0004608C1004708C200C7
:1005FC000E30BF35C00DC10DC20D890BFF2A3F084F
:10060C00BB074008BC3D4108BD3D4208BE3D3B0810
:10061C00B7073C08B83D3D08B93D3E08BA3D370820
:10062C00B3073808B43D3908B53D3A08B63D0F302C
:10063C00C300B637B50CB40CB30CC30B1F2B360868
:10064C00D3003508D2003408D1003308D000003074
:10065C00B3002030B4000030B5000030B6002100EB
:10066C005208F4005308F500890D893B8909F600FE
:10067C00F70020004F08F3004E08F2004D08F1007F
:10068C004C08F0008A31AF22813170082000B3078A
:10069C007108B43D7208B53D7308B63D0E30B70015
:1006AC00B637B50CB40CB30CB70B562B3608D700B9
:1006BC003508D6003408D5003308D4005308F300AD
:1006CC005208F2005108F1005008F0005708F700EA
:1006DC005608F6005508F5005408F4008A31AF228C
:1006EC00813173082000E2007208E1007108E0001B
:1006FC007008DF005F08B3006008B4006108B50043
:10070C006208B6000F30B700B637B50CB40CB30C9A
:10071C00B70B8A2B3608F7003508F6003408F500BD
:10072C003308F4005F08B8006008B9006108BA002B
:10073C006208BB000F30BC00BB37BA0CB90CB80C4C
:10074C00BC0BA22B3B08F3003A08F2003908F1006D
:10075C003808F0008A31AF22813170082000BD00CA
:10076C007108BE007208BF007308C0000730C100DA
:10077C00C037BF0CBE0CBD0CC10BBE2B4008DE003D
:10078C003F08DD003E08DC003D08DB005F08B300DD
:10079C006008B4006108B5006208B6005E08F3009A
:1007AC005D08F2005C08F1005B08F00021005108C4
:1007BC002000B700B801B901BA013A08F7003908AE
:1007CC00F6003808F5003708F4008A31AF22813181
:1007DC0070082000BB007108BC007208BD007308D3
:1007EC00BE000430BF00BE37BD0CBC0CBB0CBF0B35
:1007FC00F92BBB09BC09BD09BE09BB0A0319BC0A0C
:10080C000319BD0A0319BE0A3B08B3073C08B43DE3
:10081C003D08B53D3E08B63D3608E2003508E1001E
:10082C003408E0003308DF005F08B3006008B40050
:10083C006108B5006208B6000C30B700B637B50CCD
:10084C00B40CB30CB70B242C3608A3003508A2004B
:10085C003408A1003308A0008B31492381312000DA
:10086C002008D8002108D9002208DA000030A000A6
:10087C008030A1004430A2005808A3005908A400FD
:10088C005A08A5008E31592620002008B0002108F6
:10089C00B1002208B2000800F7308D314C258431AC
:1008AC0079082000C7007808C6007708C5007608CC
:1008BC00C400210030082000B300210031082000C2
:1008CC00B400210032082000B500210033082000BC
:1008DC00B6000130B700B637B50CB40CB30CB70B7F
:1008EC00712C00303307D4000630343DD500FF3076
:1008FC00353DD600FF30363DD7005408B3005508BF
:10090C00B4005608B5005708B6000230B700B63729
:10091C00B50CB40CB30CB70B8D2C3608F70035089E
:10092C00F6003408F5003308F4005408B8005508F4
:10093C00B9005608BA005708BB000230BC00BB37E0
:10094C00BA0CB90CB80CBC0BA52C3B08F3003A083C
:10095C00F2003908F1003808F0008A31AF228431F6
:10096C0070082000BD007108BE007208BF0073083B
:10097C00C0000B30C100C037BF0CBE0CBD0CC10B8E
:10098C00C12C4008CB003F08CA003E08C9003D08F6
:10099C00C8004B08F3004A08F2004908F100480867
:1009AC00F00021004908F4004A08F500890D893B44
:1009BC008909F600F7008A31AF22843173082000D0
:1009CC00CF007208CE007108CD007008CC004C0826
:1009DC00B3004D08B4004E08B5004F08B600210016
:1009EC004708F0004808F100890D893B8909F2009D
:1009FC00F30020005708F7005608F6005508F500DC
:100A0C005408F4008A31AF22843170082000B700FA
:100A1C007108B8007208B9007308BA000130B73514
:100A2C00B80DB90DBA0D890B152D3708B307380859
:100A3C00B43D3908B53D3A08B63D3608CF00350807
:100A4C00CE003408CD003308CC002100450820002E
:100A5C00B300210046082000B400B501B6011030E7
:100A6C00B335B40DB50DB60D890B362D4C08B7004A
:100A7C004D08B8004E08B9004F08BA000230BB0050
:100A8C00BA37B90CB80CB70CBB0B462D3708B307EB
:100A9C003808B43D3908B53D3A08B63D3608CF00A4
:100AAC003508CE003408CD003308CC005408B30010
:100ABC005508B4005608B5005708B6000230B70008
:100ACC00B637B50CB40CB30CB70B662D3608F70063
:100ADC003508F6003408F5003308F4005408B80063
:100AEC005508B9005608BA005708BB000230BC00C4
:100AFC00BB37BA0CB90CB80CBC0B7E2D3B08F30001
:100B0C003A08F2003908F1003808F0008A31AF22B7
:100B1C00843170082000BD007108BE007208BF004F
:100B2C007308C0000D30C100C037BF0CBE0CBD0C2B
:100B3C00C10B9A2D4008CB003F08CA003E08C900E3
:100B4C003D08C80021004108F0004208F100890D61
:100B5C00893B8909F200F30020005708F70056087A
:100B6C00F6005508F5005408F4008A31AF228431A0
:100B7C0070082000B3007108B4007208B500730847
:100B8C00B6000130B700B637B50CB40CB30CB70BCC
:100B9C00C92D21004308F0004408F100890D893B60
:100BAC008909F200F30020004B08F7004A08F60010
:100BBC004908F5004808F4008A31AF2284317008E6
:100BCC002000B8007108B9007208BA007308BB00A5
:100BDC000330BC00BB37BA0CB90CB80CBC0BF02DF5
:100BEC003808B3073908B43D3A08B53D3B08B63D63
:100BFC001230BD00B637B50CB40CB30CBD0B002EC7
:100C0C003608D7003508D6003408D5003308D40090
:100C1C0000305407F0008030553DF1000030563D57
:100C2C00F2000030573DF30021003F08F40040086B
:100C3C00F500F601F7018A31AF22843170082000EB
:100C4C00B3007108B4007208B5007308B6000F3019
:100C5C00B700B637B50CB40CB30CB70B2F2E360847
:100C6C00D7003508D6003408D5003308D40057080F
:100C7C00560455045404031D4A2E0030B0000030B5
:100C8C00B1000030B20008004408B3004508B400BD
:100C9C004608B5004708B6004C08B7004D08B80028
:100CAC004E08B9004F08BA000C30BB00BA37B90C6B
:100CBC00B80CB70CBB0B5C2E3708B3073808B43D27
:100CCC003908B53D3A08B63DB309B409B509B609BA
:100CDC00B30A0319B40A0319B50A0319B60A00308A
:100CEC003307F0000030343DF1001030353DF20098
:100CFC000030363DF3000030F7000030F6000C30C9
:100D0C00F5003530F4008A31AF22843173082000AD
:100D1C00D3007208D2007108D1007008D000803066
:100D2C0053020318B62E5708F3005608F200550864
:100D3C00F1005408F0005035F400510DF500520D3F
:100D4C00F600530DF7008031062084317308200023
:100D5C00D3007208D2007108D1007008D000D22ED6
:100D6C005708F3005608F2005508F1005408F0003B
:100D7C005308F7005208F6005108F5005008F4002B
:100D8C0080310620843170352000D000710DD100E7
:100D9C00720DD200730DD3005008B3005108B4008B
:100DAC005208B5005308B6000330B636B50CB40C77
:100DBC00B30C890BDB2E3608F7003508F600340827
:100DCC00F5003308F4005008B7005108B800520879
:100DDC00B9005308BA000330BA36B90CB80CB70CCA
:100DEC00890BF22E3A08F3003908F2003808F100AA
:100DFC003708F0008A31AF22843170082000BB0024
:100E0C007108BC007208BD007308BE000D30BE3600
:100E1C00BD0CBC0CBB0C890B0D2F3E08CB003D0848
:100E2C00CA003C08C9003B08C80021004F08F0006C
:100E3C005008F100890D893B8909F200F30020006C
:100E4C004B08F7004A08F6004908F5004808F4007A
:100E5C008A31AF22843170082000B3007108B400CD
:100E6C007208B5007308B6000C30B700B637B50C75
:100E7C00B40CB30CB70B3C2F3608D7003508D60092
:100E8C003408D5003308D4005008B3005108B4001E
:100E9C005208B5005308B6000230B636B50CB40C87
:100EAC00B30C890B532F3608F3003508F2003408C5
:100EBC00F1003308F00021004D08F4004E08F50055
:100ECC00890D893B8909F600F7008A31AF228431FC
:100EDC0070082000B7007108B8007208B9007308D8
:100EEC00BA000D30BB00BA37B90CB80CB70CBB0B41
:100EFC00792F3A08CF003908CE003808CD003708D2
:100F0C00CC005008B3005108B4005208B500530887
:100F1C00B6004C08B7004D08B8004E08B9004F0891
:100F2C00BA005408BB005508BC005608BD00570851
:100F3C00BE0021004B082000BF0021004C082000FF
:100F4C00C0000030C01BFF30C100C2003F08BB070F
:100F5C004008BC3D4108BD3D4208BE3D3B08B707BB
:100F6C003C08B83D3D08B93D3E08BA3D0430C300CD
:100F7C00BA37B90CB80CB70CC30BBE2F3708B30774
:100F8C003808B43D3908B53D3A08B63D3608D300AB
:100F9C003508D2003408D1003308D0000030A0004E
:100FAC00C830A1004230A2005308FB005208FA00DE
:100FBC005108F9005008F8008A312E228431780843
:100FCC002000A3007908A4007A08A5008E315926C8
:100FDC0020002008B0002108B1002208B20008004F
:100FEC00A0308400003085003A308931492120003E
:040FFC008C31DF2C29
:10126000163021009700080089314F212400161400
:10127000080089314F21240016150800F00070087D
:1012800024009900080089314F2170082400910042
:101290000800640080010131890B4A2900342400D0
:1012A00014194F2916081F39031908004F29320055
:1012B000910192019301940195019601080060301B
:1012C000320099009B019D0101309F009E010800A2
:1012D000FD007D088931F12120002108AA002008A5
:1012E000A90008008931572189318B318623893142
:1012F00089315F2189318931302189318931D82182
:1013000008007808F0007908F100F2018E30FB0047
:101310007B08F300F4018C317B247008F80071081D
:10132000F9007208FA000800F4308B310D2389317E
:10133000FA007A08FB007B08FC39013EFA007A08C3
:10134000FB007B08FA007A08F200F4308A3156225A
:101350000800F30021000E118E14731DB5297208C8
:1013600024009C0021000E14BB2970087204240084
:101370009C0021000E107308710424009D000800D9
:10138000F4008931342189314630F0000030F10019
:101390008931432189317408F200F3017208F000A9
:1013A0007308F100893143218931893139210800DD
:1013B000210091121112083023009F0090309D00EF
:1013C00024309E0033309B009C012100B801B701FE
:1013D0000830F0007008DA00B601B501B4019116CA
:1013E00008002000A60026088B31CA2377082000B9
:1013F000A8007608A7002708A300A2012808A500D6
:101400002708A4002508A400A50122082404A000A0
:1014100023082504A100080089314F218A312400C6
:10142000961589314F218A3124001108F200F30109
:101430007208F4007308F50089314F218A31700871
:101440007104031D262A24009616282A24009612C9
:1014500016167508F1007408F00008008E30FC00C4
:101460007C08FD00FF307B050319422A0130FB3662
:10147000FA0CF90CF80C890B372A0130FC007C08B7
:10148000FD07322A7808F0007908F1007A08F200A6
:101490007D08FC007C08F300F4018C317B2470088B
:1014A000F8007108F9007208FA000800F5008931A7
:1014B00034218A31EC30F0000030F10089314321D1
:1014C0008A3189314F218A317508F300F40173089C
:1014D000F0007408F100893143218A3189314F21AC
:1014E0008A317208F300F4017308F0007408F10007
:1014F000893143218A3189314F218A31893139211A
:101500000800893134218A314730F0000030F10081
:10151000893143218A310130F0000030F1008A31F5
:101520000C228A317108F9007008F8000830F8358B
:10153000F90D890B972A0030F000F1008A310C2256
:101540008A317008F8047108F90489314F218A3111
:10155000893139217908F7007808F6000800003051
:10156000FB000030FA000030F9000030F800701C79
:10157000C12A7408F8077508F93D7608FA3D77081E
:10158000FB3D0130F435F50DF60DF70D890BC22A40
:101590000130F336F20CF10CF00C890BC92A7308F8
:1015A000720471047004031DB72A7B08F3007A08E3
:1015B000F2007908F1007808F000080028302400D3
:1015C0009500960120002008A4002108A50022080B
:1015D000A6002308A7000230A435A50DA60DA70D6F
:1015E000890BEC2A2708F3002608F2002508F100F1
:1015F0002408F0000030F7001E30F6008430F500BB
:101600008030F400803106207008FF3E24009200F4
:10161000940121008C160C160800F8008931342141
:101620008B31EC30F0000030F100893143218B31F7
:1016300089314F218B317808F600F7017608F000E8
:101640007708F100893143218B3189314F218B316A
:10165000893139218B31893134218B31ED30F000E2
:101660000030F100893143218B3189314F218B3199
:101670000030F000F1008A310C228B317008F60046
:101680007608F90089314F218B3189313921790868
:1016900008002000A5018E30FC007C08A400A31FD8
:1016A0005E2BA009A109A209A309A00A0319A10A96
:1016B0000319A20A0319A30AA501A50AFF302305ED
:1016C00003196E2B0130A336A20CA10CA00C890BC0
:1016D000632B0130FC007C08A4075E2B2008F0007F
:1016E0002108F1002208F2002408FC007C08F30025
:1016F0002508FD007D08F4008C317B247008200053
:10170000A0007108A1007208A200080022008C014C
:101710008E01373021008C002A308E001C302300CF
:101720008E0007308C0024008C018E0125008C0176
:101730008E013C002108E0390438A1002008E0397E
:101740000538A0002408E0391538A4003D0014082D
:10175000E039193894002408E0391438A40020082E
:10176000E0391A38A0002208E0391B38A2003C00FA
:101770001D08E03910389D001E08E03911389E0020
:101780003D001508E039183895002508E0391B3868
:10179000A5000800FA00893134218B31EC30F000CB
:1017A0000030F100893143218B3189314F218B3158
:1017B0007A08F800F9017808F0007908F100893119
:1017C00043218B3189314F218B31893139218B3143
:1017D000893134218B31ED30F0000030F100893156
:1017E00043218B3189314F218B310130F0000030A2
:1017F000F1008A310C228B317108FC007008FB006B
:101800000830FB35FC0D890B012C0030F000F10095
:101810008A310C228B317008FB047108FC04893179
:101820004F218B31893139217C08F7007B08F60084
:1018300008002000C10001308931C0218C31342CD6
:1018400023308931C0218C31402C20308931C02196
:101850008C31402C21308931C0218C31402C2030FA
:101860008931C0218C31402C20004108003A0319F5
:10187000202C013A0319252C033A03192A2C2F2C6A
:1018800082302000C000DD30890B442CC00B442C7A
:1018900000328A3181228C3177082000C30076081B
:1018A000C2004308F9004208F800893181218C31D7
:1018B00078082000A3007908A4007A08A5009A30CF
:1018C000A0009930A1003F30A2008E3159268C3102
:1018D00020002008B0002108B1002208B2008D319C
:1018E000D22520003108C3003008C2004308BF00E1
:1018F0004208BE00080073080319832C72087104A3
:101900007004031D942C0030F0000030F100003012
:10191000F20008000130F5007508F3070130F236D7
:10192000F10CF00C890B8F2CFE3072050319AD2CD5
:101930008A2C0130F5007508F3070130F0070030FC
:1019400003180130F107003003180130F2070130AD
:10195000F236F10CF00C890BA82CFF30720503193C
:10196000BA2C992C0130F3020130F035F10DF20D53
:10197000890BB52CF11BC02C023073020318B22C5A
:101980007318C82CFF30F0057F30F105FF30F205E9
:101990000310F30C7308F500F601F7011030F5356C
:1019A000F60DF70D890BCF2C7508F0047608F104BD
:1019B0007708F204740803190800F2170800893147
:1019C00072218C3100302000A3000130A20086304B
:1019D000A100A030A0008A31DE228C31F001F1019B
:1019E000F20120308931A9218C31F201F20AF23062
:1019F0008A3156228C3124302000E3006308F20043
:101A0000F4308A3156228C318F3102278C310330E9
:101A10002000E4008A30E3005530890B0D2DE30BE4
:101A20000D2DE40B0D2D0032893194218C31413084
:101A30002000E300EE30890B1B2DE30B1B2D000073
:101A400001308C3119248C3120003F08EF003E0812
:101A5000EE00803158208C3120003008E50031083C
:101A6000E6003208E7008131FA218C31200030088D
:101A7000E8003108E9003208EA00843152248C3150
:101A800020003008EB003108EC003208ED00AA30ED
:101A900089313E218C31072D2000A000893134216D
:101AA0008D31EC30F0000030F100893143218D316F
:101AB00089314F218D3120002008FA00FB017A087E
:101AC000F0007B08F100893143218D3189314F21AC
:101AD0008D31893139218D31893134218D31ED308C
:101AE000F0000030F100893143218D3189314F21DF
:101AF0008D310130F0000030F1008A310C228D313F
:101B000070082000A1007108A200A301A401083000
:101B1000A135A20DA30DA40D890B882D89314F216C
:101B20008D310130F0000030F1008A310C228D310E
:101B30007008FA007108FB00FC01FD017A08200022
:101B4000A1047B08A2047C08A3047D08A404083037
:101B5000A135A20DA30DA40D890BA82D89314F210C
:101B60008D310030F000F1008A310C228D31700887
:101B7000FA007108FB00FC01FD017A082000A104B5
:101B80007B08A2047C08A3047D08A40489313921C0
:101B900020002408F9002308F8002208F700210893
:101BA000F600080020003008B4003108B500320803
:101BB000B6000310350D360DB7003708BD003D08DF
:101BC000031DEB2D0030B3000030B2000030B10037
:101BD0000030B00008003008B4003108B500320809
:101BE000B6001730B636B50CB40C890BF22D34089C
:101BF000B7003708B800B117FF30B005FF30B105A6
:101C00000030B2053008B9003108BA003208BB0014
:101C1000BC018E30BD02BD1F292E3D08803A8F3E8B
:101C200003181B2E0030B3000030B2000030B100AA
:101C30000030B00008000130BC36BB0CBA0CB90C47
:101C4000890B1C2E0130B4003408BD070319422E45
:101C50001B2E18303D02031C3F2E0030B300003015
:101C6000B2000030B1000030B00008000130B935DA
:101C7000BA0DBB0DBC0D890B372E0130BD023D08DE
:101C8000031D362E38080319502EB909BA09BB09AD
:101C9000BC09B90A0319BA0A0319BB0A0319BC0A19
:101CA0003C08B3003B08B2003A08B1003908B00064
:101CB000080020002308A6002408A7002508A80083
:101CC0000310270D280DA9002908AE002E08031DBA
:101CD000702E0030A0000030A1000030A2000800EB
:101CE0002008A6002108A7002208A8000310270D3D
:101CF000280DA9002908AF002F08031D862E0030EB
:101D0000A0000030A1000030A20008000030AB00AD
:101D10000030AC000030AD0089302F07A600260847
:101D2000AE022308A6002408A7002508A80010304A
:101D3000A836A70CA60C890B982E2608A9002908FE
:101D4000AF002008A6002108A7002208A800103034
:101D5000A836A70CA60C890BA82E2608A9002908CE
:101D6000AF068030A6002608AF05A417FF30A305F4
:101D7000FF30A4050030A505A117FF30A005FF30F6
:101D8000A1050030A2051830A6002608AA000130DF
:101D9000AB35AC0DAD0D890BC82E22082502031DF5
:101DA000D72E21082402031DD72E20082302031C4E
:101DB000E02E2008A3022108A43B2208A53B2B14F7
:101DC0000130A335A40DA50D890BE12E0130AA0227
:101DD000031DC72E2B08F0002C08F1002D08F2007F
:101DE0002E08A6002608F3002F08A7002708F400F5
:101DF0008C317B2470082000A0007108A1007208BB
:101E0000A200080088308931F1218F31200021089B
:101E10002100BA00200020082100B9008A30893151
:101E200068218F3120002A082100BC0020002908E9
:101E30002100BB008C30893168218F3120002A08B5
:101E40002100BE00200029082100BD008E3089310C
:101E5000F1218F31200021082100C000200020083E
:101E60002100BF009030893168218F3120002A087D
:101E70002100C200200029082100C10092308931D0
:101E800068218F3120002A082100C4002000290881
:101E90002100C3009430893168218F3120002A0845
:101EA0002100C600200029082100C5009630893194
:101EB00068218F3120002A082100C800200029084D
:101EC0002100C7009830893168218F3120002A080D
:101ED0002100CA00200029082100C9009A30893158
:101EE00068218F3120002A082100CC002000290819
:101EF0002100CB009C30893168218F3120002A08D5
:101F00002100CE00200029082100CD009E3089311B
:101F100068218F3120002A082100D00020002908E4
:101F20002100CF00A1308B310D238F312000AC0078
:101F30002C082100D100E130893168218F31200047
:101F40002A082100D300200029082100D200E33014
:101F50008B310D238F312000AC002C082100D400E0
:101F6000E5308B310D238F310F392000AC00AD01EE
:101F7000E4308B310D238F312000AE00AF01AE0E67
:101F8000AF0EF030AF052E080F39AF04F030AE05BC
:101F90002C082E042100D50020002D082F0421003C
:101FA000D600E5308B310D238F312000AC0004309A
:101FB000AC36890BD82F2C08AD00AE01E6308B3142
:101FC0000D238F312000AF00B001AF0EB00EF03006
:101FD000B0052F080F39B004F030AF052D082F04DD
:101FE0002100D70020002E0830042100D800E7305F
:101FF0008B310D232000AC002C082100D9000800F3
:020000040001F9
:08000E00ECFFF3FFFFFFFFFF11
:00000001FF
